{
  "contractName": "TodoList",
  "abi": [
    {
      "inputs": [],
      "stateMutability": "nonpayable",
      "type": "constructor"
    },
    {
      "anonymous": false,
      "inputs": [
        {
          "indexed": false,
          "internalType": "uint256",
          "name": "id",
          "type": "uint256"
        },
        {
          "indexed": false,
          "internalType": "string",
          "name": "taskname",
          "type": "string"
        },
        {
          "indexed": false,
          "internalType": "bool",
          "name": "status",
          "type": "bool"
        }
      ],
      "name": "TaskCreated",
      "type": "event"
    },
    {
      "anonymous": false,
      "inputs": [
        {
          "indexed": false,
          "internalType": "uint256",
          "name": "id",
          "type": "uint256"
        },
        {
          "indexed": false,
          "internalType": "bool",
          "name": "status",
          "type": "bool"
        }
      ],
      "name": "TaskStatus",
      "type": "event"
    },
    {
      "inputs": [],
      "name": "taskCount",
      "outputs": [
        {
          "internalType": "uint256",
          "name": "",
          "type": "uint256"
        }
      ],
      "stateMutability": "view",
      "type": "function",
      "constant": true
    },
    {
      "inputs": [
        {
          "internalType": "uint256",
          "name": "",
          "type": "uint256"
        }
      ],
      "name": "tasks",
      "outputs": [
        {
          "internalType": "uint256",
          "name": "id",
          "type": "uint256"
        },
        {
          "internalType": "string",
          "name": "taskname",
          "type": "string"
        },
        {
          "internalType": "bool",
          "name": "status",
          "type": "bool"
        }
      ],
      "stateMutability": "view",
      "type": "function",
      "constant": true
    },
    {
      "inputs": [
        {
          "internalType": "string",
          "name": "_taskname",
          "type": "string"
        }
      ],
      "name": "createTask",
      "outputs": [],
      "stateMutability": "nonpayable",
      "type": "function"
    },
    {
      "inputs": [
        {
          "internalType": "uint256",
          "name": "_id",
          "type": "uint256"
        }
      ],
      "name": "toggleStatus",
      "outputs": [],
      "stateMutability": "nonpayable",
      "type": "function"
    }
  ],
  "bytecode": "0x6080604052600080553480156200001557600080fd5b50620000656040518060400160405280601281526020017f546f646f204c697374205475746f7269616c00000000000000000000000000008152506200006b640100000000026401000000009004565b620003f9565b6000808154809291906200007f9062000230565b919050555060405180606001604052806000548152602001828152602001600015158152506001600080548152602001908152602001600020600082015181600001556020820151816001019080519060200190620000e092919062000147565b5060408201518160020160006101000a81548160ff0219169083151502179055509050507f05d0fb833127fc08168556d0e7ca9554fc3f6bc843b3b7d2bf1c35aea6bab6606000548260006040516200013c9392919062000350565b60405180910390a150565b8280546200015590620003c3565b90600052602060002090601f016020900481019282620001795760008555620001c5565b82601f106200019457805160ff1916838001178555620001c5565b82800160010185558215620001c5579182015b82811115620001c4578251825591602001919060010190620001a7565b5b509050620001d49190620001d8565b5090565b5b80821115620001f3576000816000905550600101620001d9565b5090565b7f4e487b7100000000000000000000000000000000000000000000000000000000600052601160045260246000fd5b6000819050919050565b60006200023d8262000226565b91507fffffffffffffffffffffffffffffffffffffffffffffffffffffffffffffffff821415620002735762000272620001f7565b5b600182019050919050565b620002898162000226565b82525050565b600081519050919050565b600082825260208201905092915050565b60005b83811015620002cb578082015181840152602081019050620002ae565b83811115620002db576000848401525b50505050565b6000601f19601f8301169050919050565b6000620002ff826200028f565b6200030b81856200029a565b93506200031d818560208601620002ab565b6200032881620002e1565b840191505092915050565b60008115159050919050565b6200034a8162000333565b82525050565b60006060820190506200036760008301866200027e565b81810360208301526200037b8185620002f2565b90506200038c60408301846200033f565b949350505050565b7f4e487b7100000000000000000000000000000000000000000000000000000000600052602260045260246000fd5b60006002820490506001821680620003dc57607f821691505b60208210811415620003f357620003f262000394565b5b50919050565b61090a80620004096000396000f3fe608060405234801561001057600080fd5b5060043610610069576000357c010000000000000000000000000000000000000000000000000000000090048063111002aa1461006e57806351db2e761461008a5780638d977672146100a6578063b6cb58a5146100d8575b600080fd5b6100886004803603810190610083919061061b565b6100f6565b005b6100a4600480360381019061009f919061069a565b6101cc565b005b6100c060048036038101906100bb919061069a565b610359565b6040516100cf93929190610779565b60405180910390f35b6100e0610418565b6040516100ed91906107b7565b60405180910390f35b60008081548092919061010890610801565b91905055506040518060600160405280600054815260200182815260200160001515815250600160008054815260200190815260200160002060008201518160000155602082015181600101908051906020019061016792919061041e565b5060408201518160020160006101000a81548160ff0219169083151502179055509050507f05d0fb833127fc08168556d0e7ca9554fc3f6bc843b3b7d2bf1c35aea6bab6606000548260006040516101c193929190610779565b60405180910390a150565b6000600160008381526020019081526020016000206040518060600160405290816000820154815260200160018201805461020690610879565b80601f016020809104026020016040519081016040528092919081815260200182805461023290610879565b801561027f5780601f106102545761010080835404028352916020019161027f565b820191906000526020600020905b81548152906001019060200180831161026257829003601f168201915b505050505081526020016002820160009054906101000a900460ff161515151581525050905080604001511581604001901515908115158152505080600160008481526020019081526020016000206000820151816000015560208201518160010190805190602001906102f492919061041e565b5060408201518160020160006101000a81548160ff0219169083151502179055509050507faccf26a040a80e6a25119cb39da293ff807081080159d2c6db82f9c60077ea4c82826040015160405161034d9291906108ab565b60405180910390a15050565b600160205280600052604060002060009150905080600001549080600101805461038290610879565b80601f01602080910402602001604051908101604052809291908181526020018280546103ae90610879565b80156103fb5780601f106103d0576101008083540402835291602001916103fb565b820191906000526020600020905b8154815290600101906020018083116103de57829003601f168201915b5050505050908060020160009054906101000a900460ff16905083565b60005481565b82805461042a90610879565b90600052602060002090601f01602090048101928261044c5760008555610493565b82601f1061046557805160ff1916838001178555610493565b82800160010185558215610493579182015b82811115610492578251825591602001919060010190610477565b5b5090506104a091906104a4565b5090565b5b808211156104bd5760008160009055506001016104a5565b5090565b6000604051905090565b600080fd5b600080fd5b600080fd5b600080fd5b6000601f19601f8301169050919050565b7f4e487b7100000000000000000000000000000000000000000000000000000000600052604160045260246000fd5b610528826104df565b810181811067ffffffffffffffff82111715610547576105466104f0565b5b80604052505050565b600061055a6104c1565b9050610566828261051f565b919050565b600067ffffffffffffffff821115610586576105856104f0565b5b61058f826104df565b9050602081019050919050565b82818337600083830152505050565b60006105be6105b98461056b565b610550565b9050828152602081018484840111156105da576105d96104da565b5b6105e584828561059c565b509392505050565b600082601f830112610602576106016104d5565b5b81356106128482602086016105ab565b91505092915050565b600060208284031215610631576106306104cb565b5b600082013567ffffffffffffffff81111561064f5761064e6104d0565b5b61065b848285016105ed565b91505092915050565b6000819050919050565b61067781610664565b811461068257600080fd5b50565b6000813590506106948161066e565b92915050565b6000602082840312156106b0576106af6104cb565b5b60006106be84828501610685565b91505092915050565b6106d081610664565b82525050565b600081519050919050565b600082825260208201905092915050565b60005b838110156107105780820151818401526020810190506106f5565b8381111561071f576000848401525b50505050565b6000610730826106d6565b61073a81856106e1565b935061074a8185602086016106f2565b610753816104df565b840191505092915050565b60008115159050919050565b6107738161075e565b82525050565b600060608201905061078e60008301866106c7565b81810360208301526107a08185610725565b90506107af604083018461076a565b949350505050565b60006020820190506107cc60008301846106c7565b92915050565b7f4e487b7100000000000000000000000000000000000000000000000000000000600052601160045260246000fd5b600061080c82610664565b91507fffffffffffffffffffffffffffffffffffffffffffffffffffffffffffffffff82141561083f5761083e6107d2565b5b600182019050919050565b7f4e487b7100000000000000000000000000000000000000000000000000000000600052602260045260246000fd5b6000600282049050600182168061089157607f821691505b602082108114156108a5576108a461084a565b5b50919050565b60006040820190506108c060008301856106c7565b6108cd602083018461076a565b939250505056fea26469706673582212208153a711e740cda64f6285b94001b8dac72c9a455c7ef8d260ce832bbd0368b564736f6c63430008080033",
  "immutableReferences": {},
  "source": "// SPDX-License-Identifier: MIT\npragma solidity >=0.8.8;\n\ncontract TodoList {\n    uint256 public taskCount = 0;\n\n    struct Task {\n        uint256 id;\n        string taskname;\n        bool status;\n    }\n\n    mapping(uint256 => Task) public tasks;\n\n    event TaskCreated(uint256 id, string taskname, bool status);\n\n    event TaskStatus(uint256 id, bool status);\n\n    constructor() {\n        createTask(\"Todo List Tutorial\");\n    }\n\n    function createTask(string memory _taskname) public {\n        taskCount++;\n        tasks[taskCount] = Task(taskCount, _taskname, false);\n        emit TaskCreated(taskCount, _taskname, false);\n    }\n\n    function toggleStatus(uint256 _id) public {\n        Task memory _task = tasks[_id];\n        _task.status = !_task.status;\n        tasks[_id] = _task;\n        emit TaskStatus(_id, _task.status);\n    }\n}\n",
  "sourcePath": "/Users/leophamdev/Desktop/blockchain/solidity-todolist/contracts/TodoList.sol",
  "compiler": {
    "name": "solc",
    "version": "0.8.8+commit.dddeac2f.Emscripten.clang"
  },
  "schemaVersion": "3.4.5",
  "updatedAt": "2022-02-26T14:20:24.147Z",
  "networkType": "ethereum",
  "devdoc": {
    "kind": "dev",
    "methods": {},
    "version": 1
  },
  "userdoc": {
    "kind": "user",
    "methods": {},
    "version": 1
  }
}